{
  "_format": "hh-sol-artifact-1",
  "contractName": "ERC721",
  "sourceName": "contracts/ERC721.sol",
  "abi": [
    {
      "anonymous": false,
      "inputs": [
        {
          "indexed": true,
          "internalType": "address",
          "name": "_owner",
          "type": "address"
        },
        {
          "indexed": true,
          "internalType": "address",
          "name": "_approved",
          "type": "address"
        },
        {
          "indexed": false,
          "internalType": "uint256",
          "name": "_tokenId",
          "type": "uint256"
        }
      ],
      "name": "Approval",
      "type": "event"
    },
    {
      "anonymous": false,
      "inputs": [
        {
          "indexed": true,
          "internalType": "address",
          "name": "_owner",
          "type": "address"
        },
        {
          "indexed": true,
          "internalType": "address",
          "name": "_operator",
          "type": "address"
        },
        {
          "indexed": false,
          "internalType": "bool",
          "name": "_approved",
          "type": "bool"
        }
      ],
      "name": "ApprovalForAll",
      "type": "event"
    },
    {
      "anonymous": false,
      "inputs": [
        {
          "indexed": true,
          "internalType": "address",
          "name": "_from",
          "type": "address"
        },
        {
          "indexed": true,
          "internalType": "address",
          "name": "_to",
          "type": "address"
        },
        {
          "indexed": true,
          "internalType": "uint256",
          "name": "_tokenID",
          "type": "uint256"
        }
      ],
      "name": "Transfer",
      "type": "event"
    },
    {
      "inputs": [
        {
          "internalType": "address",
          "name": "to",
          "type": "address"
        },
        {
          "internalType": "uint256",
          "name": "tokenId",
          "type": "uint256"
        }
      ],
      "name": "approve",
      "outputs": [],
      "stateMutability": "nonpayable",
      "type": "function"
    },
    {
      "inputs": [
        {
          "internalType": "address",
          "name": "owner",
          "type": "address"
        }
      ],
      "name": "balanceOf",
      "outputs": [
        {
          "internalType": "uint256",
          "name": "",
          "type": "uint256"
        }
      ],
      "stateMutability": "view",
      "type": "function"
    },
    {
      "inputs": [
        {
          "internalType": "uint256",
          "name": "tokenId",
          "type": "uint256"
        }
      ],
      "name": "getApproved",
      "outputs": [
        {
          "internalType": "address",
          "name": "",
          "type": "address"
        }
      ],
      "stateMutability": "view",
      "type": "function"
    },
    {
      "inputs": [
        {
          "internalType": "address",
          "name": "owner",
          "type": "address"
        },
        {
          "internalType": "address",
          "name": "operator",
          "type": "address"
        }
      ],
      "name": "isApprovedForAll",
      "outputs": [
        {
          "internalType": "bool",
          "name": "",
          "type": "bool"
        }
      ],
      "stateMutability": "view",
      "type": "function"
    },
    {
      "inputs": [
        {
          "internalType": "uint256",
          "name": "tokenId",
          "type": "uint256"
        }
      ],
      "name": "ownerOf",
      "outputs": [
        {
          "internalType": "address",
          "name": "",
          "type": "address"
        }
      ],
      "stateMutability": "view",
      "type": "function"
    },
    {
      "inputs": [
        {
          "internalType": "address",
          "name": "from",
          "type": "address"
        },
        {
          "internalType": "address",
          "name": "to",
          "type": "address"
        },
        {
          "internalType": "uint256",
          "name": "tokenId",
          "type": "uint256"
        }
      ],
      "name": "safeTransferFrom",
      "outputs": [],
      "stateMutability": "nonpayable",
      "type": "function"
    },
    {
      "inputs": [
        {
          "internalType": "address",
          "name": "from",
          "type": "address"
        },
        {
          "internalType": "address",
          "name": "to",
          "type": "address"
        },
        {
          "internalType": "uint256",
          "name": "tokenId",
          "type": "uint256"
        },
        {
          "internalType": "bytes",
          "name": "_data",
          "type": "bytes"
        }
      ],
      "name": "safeTransferFrom",
      "outputs": [],
      "stateMutability": "nonpayable",
      "type": "function"
    },
    {
      "inputs": [
        {
          "internalType": "address",
          "name": "operator",
          "type": "address"
        },
        {
          "internalType": "bool",
          "name": "approved",
          "type": "bool"
        }
      ],
      "name": "setApprovalForAll",
      "outputs": [],
      "stateMutability": "nonpayable",
      "type": "function"
    },
    {
      "inputs": [
        {
          "internalType": "address",
          "name": "from",
          "type": "address"
        },
        {
          "internalType": "address",
          "name": "to",
          "type": "address"
        },
        {
          "internalType": "uint256",
          "name": "tokenId",
          "type": "uint256"
        }
      ],
      "name": "transferFrom",
      "outputs": [],
      "stateMutability": "nonpayable",
      "type": "function"
    }
  ],
  "bytecode": "0x608060405234801561001057600080fd5b506114c4806100206000396000f3fe608060405234801561001057600080fd5b50600436106100935760003560e01c80636352211e116100665780636352211e1461011c57806370a082311461014c578063a22cb4651461017c578063b88d4fde14610198578063e985e9c5146101b457610093565b8063081812fc14610098578063095ea7b3146100c857806323b872dd146100e457806342842e0e14610100575b600080fd5b6100b260048036038101906100ad9190610d7c565b6101e4565b6040516100bf9190610f0d565b60405180910390f35b6100e260048036038101906100dd9190610d40565b6102c3565b005b6100fe60048036038101906100f99190610c3a565b61040b565b005b61011a60048036038101906101159190610c3a565b61078d565b005b61013660048036038101906101319190610d7c565b6107d3565b6040516101439190610f0d565b60405180910390f35b61016660048036038101906101619190610bd5565b610885565b6040516101739190611063565b60405180910390f35b61019660048036038101906101919190610d04565b61093c565b005b6101b260048036038101906101ad9190610c89565b610a39565b005b6101ce60048036038101906101c99190610bfe565b610a91565b6040516101db9190610f28565b60405180910390f35b60008073ffffffffffffffffffffffffffffffffffffffff166001600084815260200190815260200160002060009054906101000a900473ffffffffffffffffffffffffffffffffffffffff1673ffffffffffffffffffffffffffffffffffffffff161415610288576040517f08c379a000000000000000000000000000000000000000000000000000000000815260040161027f90610f83565b60405180910390fd5b6003600083815260200190815260200160002060009054906101000a900473ffffffffffffffffffffffffffffffffffffffff169050919050565b60006102ce826107d3565b90508073ffffffffffffffffffffffffffffffffffffffff163373ffffffffffffffffffffffffffffffffffffffff161480610310575061030f8133610a91565b5b61034f576040517f08c379a000000000000000000000000000000000000000000000000000000000815260040161034690610fc3565b60405180910390fd5b826003600084815260200190815260200160002060006101000a81548173ffffffffffffffffffffffffffffffffffffffff021916908373ffffffffffffffffffffffffffffffffffffffff1602179055508273ffffffffffffffffffffffffffffffffffffffff168173ffffffffffffffffffffffffffffffffffffffff167f8c5be1e5ebec7d5bd14f71427d1e84f3dd0314c0f7b2291e5b200ac8c7c3b925846040516103fe9190611063565b60405180910390a3505050565b6000610416826107d3565b90508073ffffffffffffffffffffffffffffffffffffffff163373ffffffffffffffffffffffffffffffffffffffff16148061048557503373ffffffffffffffffffffffffffffffffffffffff1661046d836101e4565b73ffffffffffffffffffffffffffffffffffffffff16145b8061049657506104958133610a91565b5b6104d5576040517f08c379a00000000000000000000000000000000000000000000000000000000081526004016104cc90610fa3565b60405180910390fd5b8373ffffffffffffffffffffffffffffffffffffffff168173ffffffffffffffffffffffffffffffffffffffff1614610543576040517f08c379a000000000000000000000000000000000000000000000000000000000815260040161053a90610f63565b60405180910390fd5b600073ffffffffffffffffffffffffffffffffffffffff168373ffffffffffffffffffffffffffffffffffffffff1614156105b3576040517f08c379a00000000000000000000000000000000000000000000000000000000081526004016105aa90611003565b60405180910390fd5b600073ffffffffffffffffffffffffffffffffffffffff166001600084815260200190815260200160002060009054906101000a900473ffffffffffffffffffffffffffffffffffffffff1673ffffffffffffffffffffffffffffffffffffffff161415610656576040517f08c379a000000000000000000000000000000000000000000000000000000000815260040161064d90610f43565b60405180910390fd5b6106616000836102c3565b60016000808673ffffffffffffffffffffffffffffffffffffffff1673ffffffffffffffffffffffffffffffffffffffff16815260200190815260200160002060008282546106b0919061113b565b9250508190555060016000808573ffffffffffffffffffffffffffffffffffffffff1673ffffffffffffffffffffffffffffffffffffffff168152602001908152602001600020600082825461070691906110e5565b925050819055506001600083815260200190815260200160002060009054906101000a905050818373ffffffffffffffffffffffffffffffffffffffff168573ffffffffffffffffffffffffffffffffffffffff167fddf252ad1be2c89b69c2b068fc378daa952ba7f163c4a11628f55a4df523b3ef60405160405180910390a450505050565b6107ce8383836040518060400160405280600181526020017f2000000000000000000000000000000000000000000000000000000000000000815250610a39565b505050565b6000806001600084815260200190815260200160002060009054906101000a900473ffffffffffffffffffffffffffffffffffffffff169050600073ffffffffffffffffffffffffffffffffffffffff168173ffffffffffffffffffffffffffffffffffffffff16141561087c576040517f08c379a000000000000000000000000000000000000000000000000000000000815260040161087390611023565b60405180910390fd5b80915050919050565b60008073ffffffffffffffffffffffffffffffffffffffff168273ffffffffffffffffffffffffffffffffffffffff1614156108f6576040517f08c379a00000000000000000000000000000000000000000000000000000000081526004016108ed90610fe3565b60405180910390fd5b6000808373ffffffffffffffffffffffffffffffffffffffff1673ffffffffffffffffffffffffffffffffffffffff168152602001908152602001600020549050919050565b80600260003373ffffffffffffffffffffffffffffffffffffffff1673ffffffffffffffffffffffffffffffffffffffff16815260200190815260200160002060008473ffffffffffffffffffffffffffffffffffffffff1673ffffffffffffffffffffffffffffffffffffffff16815260200190815260200160002060006101000a81548160ff0219169083151502179055508173ffffffffffffffffffffffffffffffffffffffff163373ffffffffffffffffffffffffffffffffffffffff167f17307eab39ab6107e8899845ad3d59bd9653f200f220920489ca2b5937696c3183604051610a2d9190610f28565b60405180910390a35050565b610a4484848461040b565b610a4c610b25565b610a8b576040517f08c379a0000000000000000000000000000000000000000000000000000000008152600401610a8290611043565b60405180910390fd5b50505050565b6000600260008473ffffffffffffffffffffffffffffffffffffffff1673ffffffffffffffffffffffffffffffffffffffff16815260200190815260200160002060008373ffffffffffffffffffffffffffffffffffffffff1673ffffffffffffffffffffffffffffffffffffffff16815260200190815260200160002060009054906101000a900460ff16905092915050565b60006001905090565b6000610b41610b3c846110a3565b61107e565b905082815260208101848484011115610b5957600080fd5b610b648482856111b7565b509392505050565b600081359050610b7b81611449565b92915050565b600081359050610b9081611460565b92915050565b600082601f830112610ba757600080fd5b8135610bb7848260208601610b2e565b91505092915050565b600081359050610bcf81611477565b92915050565b600060208284031215610be757600080fd5b6000610bf584828501610b6c565b91505092915050565b60008060408385031215610c1157600080fd5b6000610c1f85828601610b6c565b9250506020610c3085828601610b6c565b9150509250929050565b600080600060608486031215610c4f57600080fd5b6000610c5d86828701610b6c565b9350506020610c6e86828701610b6c565b9250506040610c7f86828701610bc0565b9150509250925092565b60008060008060808587031215610c9f57600080fd5b6000610cad87828801610b6c565b9450506020610cbe87828801610b6c565b9350506040610ccf87828801610bc0565b925050606085013567ffffffffffffffff811115610cec57600080fd5b610cf887828801610b96565b91505092959194509250565b60008060408385031215610d1757600080fd5b6000610d2585828601610b6c565b9250506020610d3685828601610b81565b9150509250929050565b60008060408385031215610d5357600080fd5b6000610d6185828601610b6c565b9250506020610d7285828601610bc0565b9150509250929050565b600060208284031215610d8e57600080fd5b6000610d9c84828501610bc0565b91505092915050565b610dae8161116f565b82525050565b610dbd81611181565b82525050565b6000610dd06019836110d4565b9150610ddb82611266565b602082019050919050565b6000610df36021836110d4565b9150610dfe8261128f565b604082019050919050565b6000610e166019836110d4565b9150610e21826112de565b602082019050919050565b6000610e396036836110d4565b9150610e4482611307565b604082019050919050565b6000610e5c6033836110d4565b9150610e6782611356565b604082019050919050565b6000610e7f600f836110d4565b9150610e8a826113a5565b602082019050919050565b6000610ea26011836110d4565b9150610ead826113ce565b602082019050919050565b6000610ec56017836110d4565b9150610ed0826113f7565b602082019050919050565b6000610ee86017836110d4565b9150610ef382611420565b602082019050919050565b610f07816111ad565b82525050565b6000602082019050610f226000830184610da5565b92915050565b6000602082019050610f3d6000830184610db4565b92915050565b60006020820190508181036000830152610f5c81610dc3565b9050919050565b60006020820190508181036000830152610f7c81610de6565b9050919050565b60006020820190508181036000830152610f9c81610e09565b9050919050565b60006020820190508181036000830152610fbc81610e2c565b9050919050565b60006020820190508181036000830152610fdc81610e4f565b9050919050565b60006020820190508181036000830152610ffc81610e72565b9050919050565b6000602082019050818103600083015261101c81610e95565b9050919050565b6000602082019050818103600083015261103c81610eb8565b9050919050565b6000602082019050818103600083015261105c81610edb565b9050919050565b60006020820190506110786000830184610efe565b92915050565b6000611088611099565b905061109482826111c6565b919050565b6000604051905090565b600067ffffffffffffffff8211156110be576110bd611226565b5b6110c782611255565b9050602081019050919050565b600082825260208201905092915050565b60006110f0826111ad565b91506110fb836111ad565b9250827fffffffffffffffffffffffffffffffffffffffffffffffffffffffffffffffff038211156111305761112f6111f7565b5b828201905092915050565b6000611146826111ad565b9150611151836111ad565b925082821015611164576111636111f7565b5b828203905092915050565b600061117a8261118d565b9050919050565b60008115159050919050565b600073ffffffffffffffffffffffffffffffffffffffff82169050919050565b6000819050919050565b82818337600083830152505050565b6111cf82611255565b810181811067ffffffffffffffff821117156111ee576111ed611226565b5b80604052505050565b7f4e487b7100000000000000000000000000000000000000000000000000000000600052601160045260246000fd5b7f4e487b7100000000000000000000000000000000000000000000000000000000600052604160045260246000fd5b6000601f19601f8301169050919050565b7f546f6b656e20496420646f6573206e6f74204578697374202100000000000000600082015250565b7f46726f6d20746865206e657477726f206973206e6f7420616e206f776e65722060008201527f2100000000000000000000000000000000000000000000000000000000000000602082015250565b7f546f6b656e20494420646f6573206e6f74206578697374202100000000000000600082015250565b7f4d73672e73656e646572206973206e6f742020746865206f776e6572206f722060008201527f617070726f76656420666f72207472616e736665722000000000000000000000602082015250565b7f4d73672e73656e646572206973206e6f7420746865206f776e6572206f72206160008201527f6e20617070726f766564206f70657261746f7200000000000000000000000000602082015250565b7f41646472657373206973207a65726f0000000000000000000000000000000000600082015250565b7f41646472657373206973207a65726f2021000000000000000000000000000000600082015250565b7f546f6b656e20496420646f6573206e6f74206578697374000000000000000000600082015250565b7f5265636569766572206e6f7420696d706c656d656e7464000000000000000000600082015250565b6114528161116f565b811461145d57600080fd5b50565b61146981611181565b811461147457600080fd5b50565b611480816111ad565b811461148b57600080fd5b5056fea2646970667358221220a91be74afab0f38f6c0bc523bd6a742f5b46cbab70cdba59abc7151ff3c2c68264736f6c63430008020033",
  "linkReferences": {},
  "deployedLinkReferences": {}
}